:040000006F005044F9
:100004000000000000000000E2030000E60300001E
:1000140000000000420C000000000000000000008E
:10002400420C0000420C0000000000000000000030
:10003400420C000000000000420C00000000000020
:10004400420C0000420C0000420C0000420C000074
:10005400420C0000420C0000420C0000420C000064
:10006400420C0000420C0000420C0000420C000054
:10007400420C0000420C0000420C0000420C000044
:10008400420C0000420C0000420C0000420C000034
:10009400420C0000420C0000420C00002A04000044
:1000A400420C0000420C0000420C0000420C000014
:1000B40086040000420C0000420C0000420C0000C8
:1000C400420C0000420C0000420C0000420C0000F4
:1000D400420C0000420C0000420C0000420C0000E4
:1000E400420C0000420C0000420C0000420C0000D4
:1000F400420C0000420C0000420C0000420C0000C4
:10010400420C0000420C0000420C0000420C0000B3
:10011400420C0000420C0000420C0000420C0000A3
:10012400420C0000420C0000420C0000420C000093
:10013400420C00007E040000420C0000420C00004F
:10014400420C0000420C0000420C0000420C000073
:10015400420C0000420C0000420C0000420C000063
:10016400420C0000420C0000420C0000420C000053
:10017400420C0000420C0000420C0000420C000043
:10018400420C0000420C0000420C0000420C000033
:10019400420C0000420C0000420C0000420C000023
:1001A400000000000000000000000000000000004B
:0C01B4000000000000000000000000003F
:1001C000397101436EC619A0397141536AC866CAB4
:1001D00062CC5ECE19A0397101535AD056D252D496
:1001E0004ED64AD826DA22DC06DE3301614082820E
:1001F00041114AC026C222C406C68282B24D4101C4
:10020000024D924C224CB24B4101024B924A224A7F
:10021000B2494101024992442244B24041018280E4
:100220003D432A876373C3029377F700BDEFADE5C3
:10023000937606FF3D8ABA960CC34CC30CC74CC7D5
:100240004107E36BD7FE11E28280B306C3408A0602
:100250009702000096966780A6002307B700A306C2
:10026000B7002306B700A305B7002305B700A30412
:10027000B7002304B700A303B7002303B700A3020A
:10028000B7002302B700A301B7002301B700A30002
:10029000B7002300B700828093F5F50F9396850091
:1002A000D58D93960501D58D61B79396270097025A
:1002B000000096968682E78086FA9680C1171D8F89
:1002C0003E96E374C3F8A5B73367B500FD530D8BB5
:1002D00079E7B7877F7F9387F7F710419441B3722F
:1002E000F6003363F600BE92B3E262006395720CCF
:1002F0006318D6065041D441B372F6003363F6005A
:10030000BE92B3E262006396720A631BD604104584
:100310009445B372F6003363F600BE92B3E2620016
:10032000639F7208631ED6025045D445B372F6002F
:100330003363F600BE92B3E2620063987208631101
:10034000D60210499449B372F6003363F600BE92A8
:10035000B3E26200639172085105D105E30FD6F64E
:100360001317060193970601631CF7001357060144
:1003700093D706013305F7409375F50F91E9828015
:100380004183C1833305F7409375F50F91E1828076
:100390001377F70F93F7F70F3305F740828010219B
:1003A0009421050585056313D60075FA3305D640FB
:1003B000828011059105E314D6FE01458280210556
:1003C000A105E31ED6FC014582803105B105E31885
:1003D000D6FC014582804105C105E312D6FC0145EA
:1003E00082807300203037B500001305C5C5EFA02B
:1003F0008032EF304015AA8537B50000130505C7D8
:10040000EFA0802CEF308014AA8537B500001305CB
:1004100005C8EFA0602BEF30C013AA8537B50000E8
:10042000130505C9EFA0402A01A0397106DE16DCCC
:100430001ADA1ED82AD62ED432D236D03ACE3ECCB4
:1004400042CA46C872C676C47AC27EC0EF106078CF
:1004500013050008EF003032F250E2525253C253FB
:100460003255A255125682567247E2475248C24848
:10047000324EA24E124F824F216173002030EF1096
:10048000F053730020302945EF10201785453705BC
:100490000040EF00F07F7300203019C9EFF25FD504
:1004A000AA8537B50000130545D9EFA0E0219DB31B
:1004B0008280EFF2FFD341118545054502C202C497
:1004C00023160100EF009064B707002083A787225E
:1004D00037470F0013070724B3D7E7024C0037054F
:1004E0000040231501007C8489679387F7703EC222
:1004F000EF00D06C0546854537050040EF003078A9
:10050000854537050040EF001076854537050040EA
:10051000EF001078B7E700E0056723A2E71041017C
:10052000D5B9EFF2FFCC39711306C00381454800FD
:10053000C53993070005138491863ED64C008D473C
:10054000138591863ED0EF30B0270C20AA8437B5B2
:1005500000001305C5CDEFA0201726853D3F0820DC
:10056000EF40E0271D3F216175B1EFF2DFC6397121
:100570002E842A89B28981451306C0034800B684B7
:10058000453137B500002686CE85130505CAEFA094
:10059000A0130C2038303420103037B5000013057C
:1005A000C5CBEFA0601237B50000CA85130505CD95
:1005B000EFA080116307090085476304F9022161F8
:1005C000A9B18D47138481864C00138581863ED066
:1005D00026D6EF30F01ED1350820EF404020753D83
:1005E000F9BF11468D47A28508183ED0EFA0E0194B
:1005F00093070064138481864C00138581863EC86E
:1006000026D64ED4EF30D01B493D0820EF4060166F
:10061000F9B7EFF2FFBD37040408130504C09305D2
:100620000030EF200012B7050020514693850502E7
:10063000130504C0EF208013B70500202D469385D5
:10064000C504130504D0EF206012B70500205946F9
:1006500093854503130504E0EF204011B707EFBE73
:1006600037E700E0938707083CC76DB6EFF25FB845
:1006700093F7450041112A84AE84A9C78145EF3024
:1006800090491307C0033307E402B7A700209387FC
:1006900007452AC6BA97985793070005631CF708C1
:1006A00070009385C19522852386818AEF3030388A
:1006B000EF203015324637B50000A285130545D32B
:1006C000EFA0800093F784008DC793070064B30701
:1006D000F402B715002093854500228513060064B7
:1006E000BE95EF30B02F37B500001305C5D5EFA08C
:1006F000800293F7040199C737B50000130545D769
:10070000EFA0600193F4040485C437B5000013051D
:1007100045D8EFA0400083D6618603D60185B7C7D0
:10072000002003C527B1B7C50020938555B1353DDD
:100730004101CDB470009385C1F92285EF30302F8F
:1007400095BFEFF2FFAAEF30507E937715002A8411
:1007500099C737B50000130545CFEF90D07B93774D
:10076000240099C737B50000130585D0EF90B07A03
:100770009377440099CBEF30307F118919C537B595
:100780000000130505D2EF90107941880DC0014497
:1007900015499374F40F2685EF30707AAA8519C134
:1007A0002685E935050442044180E31424FF9DB405
:1007B000EFF21FA441118545214502C202C402C6C1
:1007C000EF00F03293070004371501407C824C00A3
:1007D00093078004130505C03EC6EF00F00A4101EF
:1007E00015BCEFF27F9E3D26EF207040716513052A
:1007F0000520EF2030496D3F37B50000130545DA7D
:10080000EF907071B707002083A5872237B50000ED
:10081000130505DBEF90506B6D29AA8537B50000F5
:10082000130505DCEF90506AEF306073AA8537B589
:100830000000130505DDEF903069EF304072E547A9
:100840006308F50037B50000130505DEEF90B06CC6
:100850003714014093050004130504C0EF00D00EC7
:100860000DE513054006EF20903E930500041305A7
:1008700004C0EF00700D11E9130404C093050004D7
:100880002285EF00700C7DD96933B7A40020B70929
:1008900004089385C4575146138509C0EF200045CD
:1008A00037C400202D46930504B1138509D0EF20ED
:1008B000E04337C90020594693050999138509E09B
:1008C000EF20C04203C6C457930770059384C457F2
:1008D0006317F60094309307B00A638CF610153B4B
:1008E00093852400194613850186EF90106A93853D
:1008F0008400114613858185EF9030699385C4008B
:1009000011461385C185EF90506893850401114607
:1009100013854185EF90706737B50000130505DF3B
:100920004A8AEF90705A8144138C8185B7BB0000CE
:100930001149B3079C008C2313858BDF8504EF904E
:10094000B058E39824FFB7B40000138504D3EF90A8
:10095000905C37B500001305C5DFEF90F0560149F4
:10096000938C018637BC0000994BB3872C018C23F4
:1009700013058CE00509EF903055E31879FF1385D6
:1009800004D3EF9050593536938601861386C1857E
:100990009385418513858185EF103013AA84F53C3A
:1009A00099E437B500001305C5E0EF90D056953EA9
:1009B000930704B19037B827B43322063A9642061B
:1009C00041822398C184D823A206A823BA96C206DE
:1009D000B7C50020C182938555B12393D186713666
:1009E000EF204032EF10005CEF30505065DD913B5E
:1009F000D5BF034704B1E314C7EE930704B19C339A
:100A0000E39FD7EC83460999E39BE6EC1309099928
:100A100003471900E315F7ECE1B5B7170240984317
:100A2000B706FFF841111367170098C3D84337067C
:100A30000200758FD8C39843B706F7FEFD16758F71
:100A400098C39843B706FCFFFD16758F98C3D8432B
:100A5000B70681FFFD16758FD8C39843B70600EC23
:100A6000FD16758F98C33707FF0098C723A60702A6
:100A700002C402C69843C166558F98C3B716024098
:100A800005679C42F18F3EC6A24785073EC4B24728
:100A900081E7A247E397E7FEB71702409C4313970D
:100AA000E7006357070685473EC632478547631F01
:100AB000F704B7170240D843B706C1FFFD16D8C3E5
:100AC000D843D8C3D84313670740D8C3D843758FDA
:100AD000D8C3D843B7062900558FD8C39843B70663
:100AE0000001558F98C3984393166700E3DD06FE17
:100AF000D843B7160240719BD8C3D8431367270069
:100B0000D8C32147DC42B18BE39EE7FE41018280DE
:100B100002C661BFB7160240D842B707002011468F
:100B2000318B938787226305C70021466308C7027C
:100B300037177A001307072098C337170240584326
:100B400011839376F70037070020130707003697C5
:100B5000142398433357D70098C38280D842D44295
:100B6000416649833D8BF18E1306270015CF3D4723
:100B7000630FE6024147630FE60245478145631371
:100B8000E6004146A1E23747024003270780418B38
:100B90000DC737177A00130707203306C70290C323
:100BA000C9DD9843058349BF81454946E1BF854575
:100BB0003546C9BF81453D46F1B737173D0013079C
:100BC0000790E1BF3715024058559316F700585566
:100BD00063DF060411833D8B9306170037177A00F5
:100BE000130707203357D70298C35455A182BD8AF3
:100BF0008DE295463307D702058398C33717024025
:100C0000585794433D8B050733D7E60298C3984362
:100C100069B705456394A600E546E9BF3D4563967F
:100C2000A600D1463387E602C9BF8906E5BF3D8BE2
:100C30009306170037177A00130707203357D70298
:100C4000F1B701A097010020938141DE17F1002048
:100C50001301413B172501001305451F97F5FF1FA1
:100C60009385453A1386018563FAC5008322050002
:100C700023A0550011059105E3EAC5FE1385018502
:100C800097B500209385C50E6377B5002320050036
:100C90001105E36DB5FEFD42739002BCAD42739049
:100CA0004280B7620000938282087390023097F20C
:100CB000FFFF9382623593E2320073905230EFF07F
:100CC000DFD597020000938202B273901234730052
:100CD0002030B7F7FF1F03A547708280EFF24FD196
:100CE000854511656D2D81451165552D6FF08FD2AC
:100CF000930700043CC1930700027CC193070008DE
:100D00007CD123200500B7070004232205002324FB
:100D100005002326050023280500232A0500232C8F
:100D20000500232E0500232005022322050223248B
:100D300005022326050223280502232A0502232C67
:100D40000502232E05022324050423260504232857
:100D50000504232A0504232C0504232E050423203F
:100D60000506232405062326050623280506232A2F
:100D70000506232C0506232E05062320F508B707B4
:100D800000022322F5082322F50AB70702003707DD
:100D900020002326F50A93070010232405082326A4
:100DA000E50823280508232A0508232C0508232EF7
:100DB00005082320050A2324050A2328F50A232AE7
:100DC000050A232C050A8280411102C6B78602401B
:100DD0009C4A41672E057D17F18B798D9A055D8DB3
:100DE00093F5057CC98D93E51500B70750008CCAB3
:100DF000F917324705073AC6984A058B01C73247AB
:100E0000E3F9E7FE3247B7075000FD1701456307D6
:100E1000F700B7870240C84B4205418141018280FB
:100E20004111B787024002C6984BC166FD162E05D8
:100E3000758D718B9A05598D93F5057CC98DD0CB35
:100E400093E535008CCBB7070500B7860240F9174C
:100E5000324705073AC6984A058B01C73247E3F97E
:100E6000E7FE3245B7070500FD173335F5004101B0
:100E7000828023A8A1862A878147B70810401303E0
:100E80000060130EF6FF6396C700B797024088CB49
:100E90008280B3866702232017012A88AE9614C782
:100EA0009306070163F3C7013688232607018507E8
:100EB0003687D1BF916623A6A1860147AA8737034B
:100EC000008093860660130E0060930EF6FF631693
:100ED000C700B7970240C8C782803308C70323A062
:100EE0006700D4C3AA882E9823A40701138807019A
:100EF0006373D701C28823A617010507C287C1BF44
:100F0000379702401C4393E717001CC38280B797B2
:100F10000240C8CB8280379702401C4FB7061000B2
:100F2000D58F1CCF8280EFF2AFAC378402401C40DB
:100F300093E787001CC0C5371C40896693E74700CC
:100F40001CC0B7970240984F558F98CF984F1367A2
:100F5000270098CF6FF00FAC99C5379702405C4FD0
:100F60005D8D48CF8280B7970240D84F1345F5FF7B
:100F7000798DC8CF8280B707014023AAA74082801D
:100F8000B707674537270240938737125CC3B79787
:100F9000EFCD9387B79A5CC38280372702401C4B02
:100FA00093E707081CCB8280372702405C47054542
:100FB000858B91E748474189133515000D058280DF
:100FC000EFF20FA32A848544C5376318950019E012
:100FD000154529A0D13F7D14CDBF7DD86FF08FA3DB
:100FE000EFF26F9F41112A891565AE8402C69149BF
:100FF000C13F631B3503372402401C48156593E746
:1010000017001CC893970401C1832310F9004D3FBA
:101010006319350109094AC6B247C180156586A31F
:1010200045371C48F99B1CC841016FF00F9EB7065D
:101030006745B7270240938636123797EFCDD4C362
:101040001307B79AD8C3D4D3D8D3828037270240A6
:101050001C4BA166D58F1CCB8280B7270240984BD2
:10106000B7060200137505F0558F98CBC8CB984B87
:101070001367070498CBD847058B75FF984B81768B
:10108000FD16758F98CB82809C4513F7070113F8E6
:10109000F70001C7D8413368E8008E2113F7F50F38
:1010A00039C318418146854E3D4F930F800293020C
:1010B0008004214E3396DE00B3F8C5006311160399
:1010C0009398260033131F011343F3FF3377E30094
:1010D000B318180133E7E800639FF70550C9850688
:1010E000E39AC6FD18C11307F00F6375B7045441A6
:1010F0002146854E3D4F930F800293028004414E5E
:10110000B398CE0033F715016392E8021317260057
:1011100001173313EF001343F3FFB376D3003317F4
:10112000E800D98E639DF701232A15010506E3190E
:10113000C6FD54C18280E39457FA10C94DB7E397B6
:1011400057FE23281501DDB708456D8D3335A00006
:1011500082800CC982804CC98280371702405C4370
:101160009146B18B6385D700A1466382D706B71736
:101170007A00938707201CC1371602405C4237076C
:101180000020130707019183BD8BBA9794231C415C
:10119000B3D7D7005CC15442A1829D8ABA969422EB
:1011A000B3D6D70014C55442AD829D8A3697182312
:1011B000B3D7E7005CC5584239839376370013876D
:1011C000418036971823B3D7E7021CC982805C435D
:1011D0005843C166C983758FB7F6FF1F83A6C670D3
:1011E000BD8B89071396160163480600C546014664
:1011F0006392D702C94739A88946638FD702BD4693
:10120000638ED702C146638ED702C54601466393FB
:10121000D700C1471DEF3747024003270780418BA6
:1012200005C737177A0013070720B307F7021CC159
:1012300021D61C41858381B701466DBF0546B54760
:10124000D1BF0146BD47F9B737173D0013070790D7
:10125000E9BFB7150240D8559316F700D85563DF9C
:10126000060411833D8B9306170037177A00130786
:1012700007203357D70218C1D455A182BD8A8DE209
:1012800095463307D702058318C1371702405857D0
:1012900014413D8B050733D7E60218C1184171B7D9
:1012A00085456394B600E546E9BFBD456396B60043
:1012B000D1463387E602C9BF8906E5BF3D8B930659
:1012C000170037177A00130707203357D702F1B7F3
:1012D00099C5371702405C4B5D8D48CB8280B717AC
:1012E0000240D84B1345F5FF798DC8CB828099C554
:1012F000371702401C4F5D8D08CF8280B717024020
:10130000984F1345F5FF798D88CF828099C537179F
:1013100002405C4F5D8D48CF8280B7170240D84FA6
:101320001345F5FF798DC8CF828093575500054747
:101330006399E700B71702409C4333D5A70005899E
:10134000828009476396E700B71702409C53F5B7C0
:10135000B7170240DC53D5B7371702405C5793F7F5
:10136000F7F05D8D48D78280B7160240DC5645778E
:101370007D17F98F5D8DC8D6828009C93717024065
:101380001C43B7060010D58F1CC38280B7160240DD
:101390009C42370700F07D17F98F9CC2828099C567
:1013A000371702401C575D8D08D78280B71702405F
:1013B00098571345F5FF798D88D782801E213737DE
:1013C0000140930607C0C207C1836300D504B70676
:1013D0000040630CD502938606406308D502B71619
:1013E0000040138606806302C502938606C0630E22
:1013F000D50013070740630AE500375701409306FD
:1014000007C06304D5006316E500BA2193F7F7F827
:10141000D98F37170040630CE500130707406308B6
:10142000E50093F7F7CFFA21C207C183D98F1EA138
:10143000DE215EB59E211EB5B7370140138707C078
:10144000630EE50093870740630AF500B757014034
:10145000138707C06304E5006314F5009C251EB9DB
:1014600085475EA982801E2189C593E717001EA1CA
:101470008280C207C183F99BC207C183CDBF5E25AD
:1014800001C6DD8D4EA5828093C5F5FFFD8DDDBFC4
:1014900093C5F5FFC205C1810EA98280EFE25FD539
:1014A0001629F577FD17F58FF621DA257971D58F95
:1014B0001EA95625FD779387379FF58FD6212A845D
:1014C0002EC6D58F9625D58FB625D58F5EA55E29DC
:1014D000C207C18393F7F7CFD98F5EA96808B539E2
:1014E000B747014093870780B245631AF404A257B7
:1014F00056246547B387E702C206C186984163D286
:101500000604060752244206B3D7E7021307400633
:101510004186B3D6E702B3F7E702920663550602A7
:101520008E0793872703B3D7E70213F77700B367D4
:10153000D700C207C1831EA445616FE0BFCD92579B
:1015400045BF0A07C1B7920793872703B3D7E702BE
:10155000BD8BD58FF9BF91C55E250967D98F5EA573
:1015600082805A25F977FD17F98FD5BF93F5F51FBE
:101570004EA182800A216D8D3335A000828083A721
:1015800001879843634B07029843370600304E05A6
:10159000518F98C39843370600804D81518F98C36F
:1015A000C8C38CC737970240114650CB232207008F
:1015B000DC47054523A8F186828001458280EFE261
:1015C0003FC3854789456317F500371501405136FC
:1015D0006FE05FC437150140BD3EDDBFEFE25FC184
:1015E000854785456317F500371501409D366FE047
:1015F0007FC2371501408536DDBF93870188984348
:101600003A9588C3828003A7018823AEE186B78715
:10161000024003A7471C25EF03A74719894763F832
:10162000E706EFE2FFBC03D50189F9451384018980
:10163000EFF08FF993572500858BA9C74D991316A5
:1016400005010A204182F945EFF08FFD37870240FE
:101650008327071093E717002320F710832707102D
:10166000858BEDFFB787024003A7471C11CB238270
:101670000188D843B706008093C6E6FF758FD8C3AC
:101680006FE05FB913654500420541814DBFB787E3
:10169000024003A7471C19CB23820188D843B70611
:1016A000008093C6E6FF758FD8C382808280EFE208
:1016B0009FB2938401898A20954513840189EFF0B4
:1016C000AFF02A898A208545EFF00FF09377F90172
:1016D0001389E188638A071483470900C1E30A205C
:1016E0008547F9452300F900A386F188EFF0CFED97
:1016F0001376C5FF4206937715004182A9CF136682
:1017000026000A20F945EFF0AFF10A208145EFF0FD
:10171000AFEB1376E5FF42060A20418213660620EE
:101720008145EFF0EFEF0A208145EFF0EFE9136616
:1017300035200A20420641828145EFF06FEE83A7F3
:10174000818813074006B3F7E702938727032384B2
:10175000F1806FE09FAB1366160065B7054763978E
:10176000E70089472300F900A38601889387E18970
:1017700003870700634607069384918094202147DE
:10178000639AE6040A20F945EFF00FE41376350F6B
:101790000A20F94590A0EFF0AFE8238004000A206A
:1017A0008145EFF06FE21376E5FF42060A204182A1
:1017B000136606208145EFF0AFE60A208145EFF081
:1017C000AFE0136635200A20420641828145EFF0E2
:1017D0002FE521A0130700F898A3238E018895BF59
:1017E0009387518A98239306170094A39546E3168E
:1017F000D7FE1375050275F193849180238007004D
:101800009C2011490A20F945E38027F9EFF0CFDB4E
:101810001376350F0A2013664600F94590A0EFF0C5
:101820002FE023802401A5BF0347090085476312E9
:10183000F7081387D1881C23A1468A20850793F7D0
:10184000F70F1CA3639BD7002300070023000900A8
:101850002146F945EFF0CFDCEDBDF945EFF0CFD6ED
:101860001376C5FF4206937715004182A1C3136624
:1018700026000A20F945EFF0AFDA0A208145EFF0A3
:10188000AFD41376E5FF42060A2041821366062094
:101890008145EFF0EFD80A208145EFF0EFD21366D3
:1018A00035204206418281450A206DB71366160035
:1018B000C9B71384C189834A0400138AE189834626
:1018C0000A0093871A001307000893F7F70F639431
:1018D000E6063D476384EA001CA0A5BD8A202300DC
:1018E0000400230009001384918021492146F94511
:1018F000A382018A23000A0023002401EFF04FD2C3
:10190000230024018A208145EFF00FCC1376E5FFF8
:1019100042068A204182136606208145EFF04FD0AF
:101920008A208145EFF04FCA136635204206418276
:1019300081458A2005B79389918003C709001DE777
:101940001147E39BEAF88A20F94523000400EFF0F1
:10195000AFC71376350F8A2013664600F9452380FA
:10196000C900EFF0EFCB2380590169BF914663189E
:10197000D7023D47E392EAF68A202300040021447F
:101980002146F945A382018A2300090023000A00A9
:1019900023808900EFF0CFC823808900A5B71CA061
:1019A00093074006E397FADA8A2021668145EFF033
:1019B0002FC72382018AA382018A23820188A1473B
:1019C000230004002300090023000A002380F900FB
:1019D0002146F945B9BFEFE2BF819387D1899823AA
:1019E0001377F70F2DC303A7018883A6018A158FEC
:1019F0009306301F63F7E604374702402380070051
:101A000083270780138401890A2093E74700232056
:101A1000F78021668145EFF0AFC02382018AA3825F
:101A2000018A238E0188238701880A202382018866
:101A3000238F018821472146F945A384E180EFF0F7
:101A40002FBE6FE02FFD1389418A8347090013845D
:101A5000C188D9E783C6E18805471389E188938463
:101A60008180636BD70003D501899545EFF0CFB531
:101A70007D8919C123800400938701889043938650
:101A8000018A94428C20158E938601881387018ADF
:101A90006360B6040346090085476310F6041386A5
:101AA00081881C42B745030093851540B387B70270
:101AB000B7A52600938595ECAE971CC21306400689
:101AC000B3F7C702938727039CA09C421CC3C5366B
:101AD0001C20A5DB23000400ADB793072003EDB75E
:101AE0001C2093844188A5C383A7018803A7018A8A
:101AF000998F1307900F6378F70423000400138471
:101B000001890A208545EFF02FAC9377450085EFDA
:101B1000EF1050410A2021668145EFF06FB0A3829B
:101B2000018A238E01880A2023870188238F018858
:101B300021472146F9452300090023800400A3849E
:101B4000E180EFF0EFAD9C20E38D07EE03A7C187A6
:101B500083A70188998F13073006E374F7EEEFF03F
:101B60009FAAC5B5EFE2CFE841118545414502C2C4
:101B700002C402C6EFF0AFF78D477C82C1473EC674
:101B80004C008D47371501403EC4EFF0EFCF89453B
:101B900037150140EFF0EFDB854537150140EFF0D9
:101BA0004FDB41016FE00FE7EFE28FE40145EFF01B
:101BB000CFFC4145EFF04FFA3565EFF0EFFA054500
:101BC000EFF0AFFB1305D003EFF02FF665DD6FE00C
:101BD0006FE4EFE2EFE1138401890A209545138950
:101BE0000189EFF06F9EAA840A208545EFF0CF9D12
:101BF000937745002A8495C38DE0374702408327B9
:101C00000780ED9B2320F7800547A38EE18803A77B
:101C1000018823A0E18A6FE0EFDF2285EF1090308A
:101C20001374440293074002631AF4080355090031
:101C3000C145EFF06F991189B786024019E5FD881B
:101C40008547B78602406385F4069C420567130703
:101C50000780D98F9CC2B78702409843D176FD1682
:101C6000758F98C391462382D18AD843B7060080E6
:101C70008506558FD8C303A707101367170023A045
:101C8000E7103787024083270710858BEDFF054754
:101C90002382E18803A7018823AEE186EFF0AFA895
:101CA000B78702409C43AD83858B238CF186A5B713
:101CB0009C427D771307F77FF98F69BF3747024052
:101CC00083270780ED9B2320F7800547A38EE188BB
:101CD00003A7018823A0E18AE1B7EFE2CFCF3171FA
:101CE00037960240B7067000370760005C4AF58FF0
:101CF000E39EE7FE83C7418A9384418A95C703D553
:101D00000189F94513840189EFF00F8C1376C5FF23
:101D100042069377150041826386072213662600E8
:101D20000A20F945EFF0CF8F0964EFF06F9D13049F
:101D30000471379902407D14420429454180EF1017
:101D4000A06D09C483270900858BF5F74800EFE0F3
:101D50003FFA85473EC2930700203ED6B7070002F0
:101D60003EC58566930700083ECD370720001389DE
:101D7000068093070004378402403AC94AD202CC55
:101D800002D002D802DE82C482C882CA82CC02C3D8
:101D90003ECF02D31C48938616A0378501808D9BC9
:101DA0001CC8B245A24710401305150CCD8FB7854E
:101DB00020FF9385F5106D8ED18F4246B795024076
:101DC000D18F5246D18F7246D18F2256D18F525623
:101DD000D18F6256D18FD58F1CC01C40B706100022
:101DE000D58F1CC086479646D58FB646D58F5CC02A
:101DF000F6471CC486575CC43656A657144CD18F80
:101E00004656D18F5656D18F6656D18F41661306EE
:101E100016F4F18ED58F9656C206D58F1CCC8A4605
:101E2000F657D58F5CCC5A46BA47944DD18F37467A
:101E3000DEF8130636F2F18ED58F8A56D58FB706A7
:101E400020029386060CD58F9CCD93860186DC32CA
:101E5000CC22A207CD8F3CC083C6118683C70186E2
:101E60008545A206DD8E83C72186C207DD8E83C726
:101E70003186E207D58F7CC0B70702002328E41023
:101E8000938707022326F410EFF00F8D37350020DB
:101E9000B7650020930945FB09469385459D1305C9
:101EA00045FBEFE01FFD37350020B7350020130A52
:101EB00045F41D46938545FD130545F4EFE09FFF6E
:101EC00023AA418923AC31891C407D771307F77F12
:101ED000F98F1CC083C7818791C71C4033E9270154
:101EE00023202401B78602409C4251777D17F98F49
:101EF0009CC2EFF04F839C2013840189B9E70A202C
:101F000021668145EFE0DFF1A382018A238E0188FB
:101F1000238701880A2023820188238F0188214793
:101F20002146F94523800400A384E180EFE05FEFC0
:101F300005472386E18803A7018823A0E18A296158
:101F40006FE0AFAC13661600E1BB0A20F945EFE085
:101F5000BFE71376C5FF420693771500418291CB08
:101F6000136626000A20F945EFE09FEB9C20E9F379
:101F700079B713661600FDB783A7418713070002E0
:101F800093F7070F639FE700B79702409C5337070B
:101F9000FE1FF98F99C7EFE2AFA5EFF01FD46FE0F6
:101FA0006FA78280EFE2CFA4EF108076EF10C05AC7
:101FB000EFF07FA2D1376FE0EFA5EFE26FA3378795
:101FC00002401C4B2E8481458D9B1CCB50411C41F3
:101FD0001443D18F378620FF1306F610F18ED58F6C
:101FE0001445D58F5445D58F1449D58F5449D58F75
:101FF000144DD58F544DD58F1451D58F5451D58F45
:102000001455D58F5455D58F1459D58F5459D58F14
:102010001CC31C43B7061000D58F1CC3545D1C5D48
:10202000D58F3441D58F7441D58F3445D58F7445C4
:10203000D58F3449D58F7449D58F5CC33C4D1CC7AF
:102040007C4D5CC730557C51144FD18F41661306CF
:1020500016F4F18ED58F745537960240D58F3459CA
:10206000D58F7459D58F3451C206D58F1CCF745D6E
:102070003C5DD58F5CCF8326450883270508184E25
:10208000D58FB746DEF8938636F2758FD98F032742
:102090008508D98F0327C508D98F03270509D98F4C
:1020A00003274509D98F03278509D98F0327C50938
:1020B000D98F0327050A2285D98F1CCE2166EFE030
:1020C0003FD62146F9452285EFE09FD505456FE0D3
:1020D0006F94EFE24F9031718545AA847165EFF0FE
:1020E0002F9F85472398F188EFF01FAC37470240B8
:1020F0008327078009641304047193E747002320B2
:10210000F780EFE0BFBD13890189EFE07FDFB7996A
:1021100002407D14420429454180EF10E02F09C49C
:1021200083A70900858BF5F74800EFE07FBC856742
:10213000938707803ED285473EC2930700203ED654
:1021400083550900B70700023EC59307000837040E
:1021500020003ECD48009307000422C93ECF02CCA8
:1021600002D002D802DE82C882C482CA82CC02C3F4
:1021700002D3A135DC30D820B7860240A207D98F20
:10218000BCC298309C203785018022075D8FBC201F
:1021900085451305150CC2075D8FBC30E207D98F4A
:1021A000FCC2B707020023A886109387070223A664
:1021B000F610EFE07FDA29616FE02F85EFE24F83C1
:1021C000B7970240C04B13170401635A07021377F5
:1021D00004081DC303A74187C1461377070F63197E
:1021E000D700F847B7060080584714C323A4070058
:1021F00013050008EFE0BFD12165EFE05FD1931731
:10220000F40063DA07029377040489C71305000416
:10221000EFE0FFCF9377140081C70545EFE03FCF94
:1022200063580400EFF0FF9A37050080EFE03FCEDF
:102230004165EFE0DFCD6FD0FFFDEFD27FFB2A8459
:1022400013054006EF10A020EFE0BFA823AAA18647
:10225000EFF05F913C3058202285B98F5830B98F0C
:102260003747030013071740B387E70237A7260055
:10227000130797ECBA9723A4F188A13D37350020C6
:10228000B7650020130445FB09469385459D13055A
:1022900045FBEFE01FBE37350020B7350020930423
:1022A00045F41D46938545FD130545F4EFE09FC0B9
:1022B00023AA918823AC81880967B7E700E023A4AB
:1022C000E710A38607446FD0FFF4EFD27FF2397195
:1022D000930700603ECA930700323ECC896793871C
:1022E00047B03ECE930720033ED0930730103ED236
:1022F000B727554095073ED4B71700009387C75DB1
:102300003ED6B71700009387E75B3ED8B7170000AB
:102310009387E7573EDAB7573412938787672A893E
:1023200048082EC632C4B68402DC3EDEEF103030E0
:102330002A8411E92246B245A6864A85EF10702408
:102340002A842685DD3D228521616FD0BFECEFD246
:102350009FE84111AA892E89B28413042003CA85FB
:1023600070004E8526C6EF202024B2477D141374DA
:10237000F40F9D8C3E9911C0FDF041016FD0FFE834
:10238000EFD21FE72E84B7350100AA84938505AFED
:102390002285EF80205009E9B7350100938545AFCC
:1023A0002285EF80204F15CD85479CA0130954004E
:1023B0001CA01CB03CA093070003A380F402890476
:1023C0007D46CA852685EF80403CB7350100938560
:1023D00085B02685EF80404FAA852685EF8060492D
:1023E0002DA8B7350100938585AF2285EF80804AFF
:1023F00009E9B7350100938505B02285EF80804952
:1024000019C98D479CA01146854522851309640092
:10241000EFD01FE14DB7238004006FD0BFDFEFD2B4
:102420003FDDAE84B73501002A849385C5B026858B
:10243000EF80404611E903A5818AB73501009385F5
:1024400045B1EF80204509C585471CA06FD09FDCB2
:10245000B73501009385C5B12685EF80A043894734
:102460006DF5B7350100938545B22685EF80804232
:102470008D4761FDB73501009385C5B22685EF8094
:102480006041914779F1B7350100938545B32685C1
:10249000EF80404019C195474DBF230004007DB730
:1024A000EFD21FD5011102CC02CE23000500A300FC
:1024B000050023010500A301050085472A84B28693
:1024C000638FF50489476381F5068D476383F506BD
:1024D00091476385F506154781476396E500B73751
:1024E0000100938707AABE85228536C6EF80603833
:1024F000B24637360100130646AEA1452808EF80E4
:10250000E01E2C082285EF806033B73501009385EB
:1025100085AE2285EF80803205616FD0BFCFB7379F
:1025200001009387C79EC1B7B7370100938787A281
:102530005DBFB7370100938747A675B7B73701006E
:102540009387079B4DB7EFD2BFCAAE84EF8080342C
:102550002A8409C52685EF80C0322A9422856FD04F
:102560007FCB13062500A54595461C21138707FD43
:102570001377F70F63E8E50018A10505E317C5FE1B
:10258000054582801387F7F91377F70F63E6E600B6
:10259000938797FA1CA1D5B71387F7FB1377F70F2B
:1025A00063E5E600938797FCF5B701458280EFD29B
:1025B0009FC20111AA891389150081440144130A9D
:1025C0005002AD4A13F5F40F637EC402B38789004D
:1025D000038707009307140093F7F70F6317470566
:1025E000CE979C23680832C6230EF100930724007F
:1025F00093F7F70FCE979C23A30EF1009D37324639
:1026000009E5014505616FD05FC08347C1010347FC
:10261000D1010D049207BA97A30FF9FE1374F40FBA
:1026200085040509E39054FBE9BFA30FE9FE3E844E
:10263000C5BFEFD27FB9B7A90020416A41112A84F2
:102640002E8BB28A8144373C0100938909597D1A47
:10265000930B400293054CBB2285EF80A0232A896F
:1026600051C1B30C854033859900E694A28533F6B9
:102670004C01C204EF806011C18001449377F40FD4
:1026800063968A0063945703814451A0B30774038F
:10269000DA978C432E852EC6EF80A01EB2452A867F
:1026A0004A85EF80400C930714001DE9330474033E
:1026B0005A94930C44006685EF80A01C2A86E68518
:1026C00033859900EF80600C6685EF80801BAA94AB
:1026D0000840C204C180EF80C01A3304A9009DBF26
:1026E0003E8469BF830704009DC32285EF80601983
:1026F0002A8637A5002013050559A2852695EF8067
:10270000C0082285EF80E017AA94C204C180268504
:1027100041016FD0FFAEEFD2BFAD37A400200566F8
:10272000AA842E8913060640814513050459EFD06B
:102730003FAF4A86A68513050459EF8000056FD088
:102740007FADEFD2FFAAAE842A89A180EFE03F8E51
:10275000014463169400EFE07F8F6FD0BFAB131579
:1027600084004A95EFE07F8F0504E5B7EFD2BFA65E
:102770004111AA8432892E8AEFE09F802684114578
:102780002699914963742401630935012AC6EFE053
:10279000DF80324541016FD05FA7B3079440D297E5
:1027A0008C4322851104EFE0BF83E9BFEFD2BFA2C3
:1027B00039712A84814549461305E100EFD05FA6AF
:1027C000ED77B7350100938777B59385C5B322853B
:1027D0007C86EFF05FD7630D05222A847946814518
:1027E0000810EFD0FFA3930560022285EF80E0067A
:1027F000AA89630F052033068540A2850810EF7073
:10280000D07837340100930544B40810EF80C00B32
:10281000EF7010751309C1004887130A1101CA84AB
:10282000930544B40145EF80200AEF707073A8B09F
:102830008504E39744FFB7350100938585B44E8541
:10284000EFF07FD0AA846305051C79468145081006
:10285000EFD01F9D930560022685EF8000002A8A35
:102860006308051A33069540A6850810EF70F071CD
:10287000930544B40810EF802005EF70706E7C0063
:10288000230AA1009309F100BE84930544B40145D5
:10289000EF808003EF70D06C88B48504E39799FED5
:1028A000B7350100938505B55285EFF0DFC9AA84DD
:1028B00063000516794681450810EFD07F96930591
:1028C00060022685EF7070792A8A63030514330647
:1028D0009540A6850810EF70506B930544B408101E
:1028E000EF70907EEF70D067230CA1006400930519
:1028F00044B40145EF70507DEF709066C8B4850414
:10290000E39734FFB7350100938585B55285EFF025
:102910009FC3AA84630E050E794681450810EFD047
:102920003F90B7350100938585B92685EF70907685
:102930003306954009E52685EF70B0742A86A68592
:102940000810EF709064930544B40810EF70D077CE
:10295000EF701061230EA100930544B40145EF70A0
:10296000B076EF70F05FA308A9000509E39629FF90
:102970003704040893050010130504C0EFF07FDC52
:1029800051466C00130504C0EFF05FDE90860C86A4
:1029900037350100130505B6EF70105303483101B8
:1029A00083472101034711018346010190870C876A
:1029B00037350100130505B7EF701051034771015A
:1029C00083466101034651018345410137350100CA
:1029D000130545C2EF70504F0347B1018346A10173
:1029E000034691018345810137350100130585B800
:1029F000EF70904D0347F1018346E1010346D10199
:102A00008345C101373501001305C5B9EF70D04BBF
:102A100021616FD08FFFEFD20FFCED77B73501004A
:102A20007971938777B5938505BE2313010023142D
:102A300001002315010023160100230701007C82F9
:102A4000EFF07FB06302051C2A84794681450808AF
:102A5000EFD00FFD930560022285EF701060AA840D
:102A60006304051A33068540A2850808EF70F0510B
:102A7000B7350100938585BE0808EFD0FF8419E1C2
:102A800085475C83B73501009385C5BE2685EFF089
:102A90009FAB2A84630A0516794681450808EFD062
:102AA0002FF8930560022285EF70305BAA84630DD6
:102AB000051433068540A2850808EF70104D0808FC
:102AC000EF70104A1304001033458502C8830808CC
:102AD000EF70104933658502B7350100938545BF16
:102AE00048842685EFF03FA62A84630F05107946B7
:102AF00081450808EFD0CFF2930560022285EF7080
:102B0000D0552A896302051033068540A28508083E
:102B1000EF70B047B7340100938544B40808EF70F4
:102B2000B05AEF70F0434000C884130A7100A289C4
:102B3000938544B40145EF703059EF70704268A03E
:102B40000504E31744FFB73501009385C5BF4A85E7
:102B5000EFF07F9F2A844DC9794681450808EFD060
:102B60002FECB7350100938585B92285EF7090521F
:102B70003306854009E52285EF70B0502A86A2858C
:102B80000808EF7090400808EF70903D13040010A3
:102B900033458502C8860808EF70903C336585028E
:102BA00037040408930500104887130504D0EFF09C
:102BB0005FB92D46CE85130504D0EFF03FBB0C83E3
:102BC00037350100130545C0EF7010309C830C842D
:102BD00037350100A207BE95130505C1EF70D02E51
:102BE0008C8418869485108537350100130505C23D
:102BF000EF70902D9C860C8737350100A207BE959B
:102C0000130585C3EF70502C45616FD00FE0EFD2F4
:102C10002FDE79712A84814551461305A10102C630
:102C200002C8231A0100EFD0AFDFED77B7350100FE
:102C3000938777B5938585BB2285FC84EFF0BF90A1
:102C400059CD93056002AA84EF7030412A8441C9AE
:102C5000330695401377F60FA94763E2E7083A86F3
:102C6000A6851305A101EF705032B735010022850A
:102C7000938505BCEFF03F8D2A8435C1B73501003F
:102C8000938585B9EF70104131CD018D1376F50F25
:102C90006C002285EFF0BF912A8631C16C0048108C
:102CA000EF70B02E3704040893050010130504E0FC
:102CB000EFF03FA959462C08130504E0EFF01FABD5
:102CC000373501009305A101130585BCEF70D01FB6
:102CD000373501004C10130545BDEF70F01E4561FE
:102CE0006FD04FD32285EF70D0394DB7AA872A967F
:102CF00063E3C700828094433387A7402E9714C3B1
:102D00009107FDB7EFD22FCDB7C40020B737010030
:102D100079719384849A938707899CC07946814509
:102D2000080837A400201304C457EFD06FCF7C30BD
:102D300037360100130686893EC083486400034885
:102D40005400383034205C20F9450808EF70101A20
:102D5000938744000C083E85EF70B031B73901000D
:102D6000AA851385C98AEF703016B737010093879B
:102D7000C78BDCD0794681450808EFD06FCA03487D
:102D8000B400183414243C24373901001306498C4C
:102D9000F9450808EF709015938784020C083E856A
:102DA000EF70302DAA851385C98AEF70F011B737FF
:102DB00001009387078DBCC4794681450808EFD090
:102DC0002FC60348F400583454247C241306498C3D
:102DD000F9450808EF7090119387C4040C083E85EC
:102DE000EF703029AA85373501001305858DEF7006
:102DF000B00DB73701009387878EFCD479468145A3
:102E00000808EFD0EFC103483401183814283C28D3
:102E10001306498CF9450808EF70500D9384040798
:102E20000C082685EF70F02437350100A6851305C0
:102E3000058FEF70700937C40020B7370100130405
:102E400004A8938707901CC0794681450808B7C439
:102E50000020EFD0EFBC938404B1B420B739010057
:102E6000138649AEF9450808EF70500893074400EF
:102E70000C083E85EF70F01FAA8537350100130559
:102E80008590EF707004B7370100938787915CD00D
:102E9000794681450808EFD0AFB8BC30D4201386FE
:102EA00049AEA207BE96F9450808EF7030049307B3
:102EB00084020C083E85EF70D01BAA8537350100CF
:102EC00013050592EF705000B73701009387079301
:102ED0003CC4794681450808EFD08FB403C884000C
:102EE000F820D430FC301306498CF9450808EF70FF
:102EF000E07F9307C4040C083E85EF709017AA8505
:102F00003735010013058593EF70007CB73701005A
:102F1000938787947CD4794681450808EFD04FB0D9
:102F20009C34B424138649AEA207BE96F94508081E
:102F3000EF70C07B130404070C082285EF70701338
:102F400037350100A28513050595EF70E07737C48A
:102F50000020B7370100130484A393870796B7C4F2
:102F600000201CC093840499930744009385240097
:102F70003E85EF701010AA85373501001305859640
:102F8000EF708074B7370100938787975CD0130484
:102F900084029385C4002285EF70B00D373501009F
:102FA000A28513050598EF70207245616FD0EFA5DB
:102FB000EFD20FA4AE842A89EF70B00C2A84268544
:102FC000EF70300C8146814763DA8702B305F44025
:102FD000014729A83308F7004A983386E40003081C
:102FE0000800030606006319C80005076304B7005C
:102FF000E342A7FE8506AA978507F9B736856FD005
:103000006FA1EFD26F9C37090020B735010093857F
:1030100005AF13054938EFF0BFF9B7350100AA84B1
:10302000938545AF13054938EFF09FF8B735010098
:10303000AA94938585AF13054938EFF07FF793F491
:10304000F40FB7350100AA94938505B013054938EC
:1030500093F4F40FEFF0DFF537CA0020AA94130AB7
:10306000CAB193F4F40F0144130B2A00373D010059
:10307000B7CA0020B7AC002099EC03C5C18A8145CE
:10308000EF10B00B13060064814513054938EFD0EB
:103090002F996FD0EF96930549385285EFF04FAED8
:1030A00083070A00FD14054793F4F40F638CE70EC1
:1030B0000D47E393E7FC9389818ADA8513051A00AB
:1030C00023A06901EFF0AFB583A90900B73501006E
:1030D000938585C44E85EF70E07B21CD0564356511
:1030E000930514C813058594EFF0EFE2130414C898
:1030F00083051A00228613850AB4EFF06FBA138590
:103100000AB4EF7000789389C18A2A8603C5090042
:1031100093850AB4EFF0AFA303C5090093850C595A
:103120002286EFF0CFA203C509008145EF10F00021
:10313000A1B7B7350100938505C54E85EF70807541
:1031400045D945659305B01C13054512EFF0AFDC7A
:10315000B7350100938585C513054938EF70807335
:1031600009C513054938EFF06FE4B73501009385C1
:1031700005C613054938EF70E07109C513054938D4
:10318000EFF07F89B7350100938585C6130549386F
:10319000EF7040701304B01C21DD13054938EFF0C7
:1031A0001FA7B9B79389818ADA8513051A0023A06E
:1031B0006901EFF0CFA683A9090093054DB14E85B3
:1031C000EF70406D09CDB7C5002031650946938584
:1031D00085A3130585D1EFF0CFC52A8405A0B735A7
:1031E0000100938505C74E85EF70C06A21C54D6506
:1031F000FD4513050599EFF00FD27D4483051A00B4
:10320000228613850AB4EFF0AFA913850AB4EF70D4
:1032100040679389C18A2A8603C5090093850AB449
:10322000EFF0EF9203C50900228693850C59EFF069
:103230000F9299B5B7350100938585C44E85EF701F
:10324000606501CD05643565930514C81305859443
:10325000EFF06FCC130414C855B7B7350100938550
:1032600085C74E85EF70006311C9B7C50020316571
:1032700011469385859A1305C58AB1BFB7350100FC
:10328000938505C84E85EF70E06011C9B7C5002071
:1032900041651146938505A8130545542DBFB735E3
:1032A0000100938585C84E85EF70C05E11C9B7C512
:1032B000002045650946938585A31305052F21BF89
:1032C000B7350100938505C94E85EF70A05C01CD2F
:1032D00005642D65930554A6130545E4EFF0AFC3CF
:1032E000130454A621BFB7350100938585C94E85C7
:1032F000EF70405A19C931659305105E13054536C4
:10330000EFF06FC11304105ED5BDB7350100938592
:1033100005CA4E85EF70005801CD056435659305EB
:1033200034CA1305C55CEFF00FBF130434CAF9B5F6
:10333000B7350100938585CA4E85EF70A05501CD44
:10334000056439659305648613050527EFF0AFBC66
:103350001304648665B5B7350100938505CB4E85AA
:10336000EF70405301CD05643D659305A4991305A5
:1033700085ADEFF04FBA1304A49949B5B7350100F4
:10338000938585CB4E85EF70E05001CD05643D659A
:103390009305E40C13054547EFF0EFB71304E40C75
:1033A000B1BDB7350100938505CC4E85EF70804ED9
:1033B00001CD056445659305042413050565EFF00B
:1033C0008FB5130404241DBDB7350100938585CC4A
:1033D0004E85EF70204CE30305E245659305B06B25
:1033E000130585A6EFF02FB31304B06B01BDB7072B
:1033F000002083A7872237177A0013070720B3D747
:10340000E70293F7F70F2388F18A1307803EB3870B
:10341000E7022397F18A8280B7F700E0D84381461C
:10342000799BD8C303C7018B3306A70290CBD4CBBB
:1034300098431367070198C398431367170298C30B
:10344000D843058B75DF9843799B98C38280B7F783
:1034500000E0D8438146799BD8C303D7E18A33067D
:10346000A70290CBD4CB98431367070198C3984326
:103470001367170298C3D843058B75DF9843799B70
:1034800098C38280EFC2DFD62A8411650111854579
:103490001105EFD0DFE5930700207C82371501404E
:1034A0008D473EC44C00E147130505803EC6EFD072
:1034B000BFBD22C837440140B70708000C081305F8
:1034C00004803ECC02CA231E0100EFD03FFD85459B
:1034D00013050480EFE02F8805616FC0BFD3EFC2F2
:1034E0009FCFB7440140AE89328901449384048060
:1034F000634524014A856FC05FD19305000426858A
:10350000EFE04F877DD9B387890083850700268543
:103510000504C205C181EFE06F85D9BF1387C18063
:103520001C43B7C600209386C6D63E95636BD50074
:10353000B70601209386068063E5A60008C33E8592
:103540008280FD57EDBF73251034828073252034AF
:103550008280732530348280EFC29FC983A701889F
:1035600041113EC6EF104020118963000514938776
:10357000C18C9843B246998E37C70020032787CA6B
:1035800005836376D700324798C3EF30305BEF4056
:10359000001583A7C18D91C7EF30705C19E123AE90
:1035A000018C9384818C9840B247998F1307703EA9
:1035B0006376F700EF20C026B2479CC09387418B0B
:1035C0009843B246998E0567130777386376D7001C
:1035D000324798C3EF10A062B7C700209387C7C6D1
:1035E000D84711CF1387418C1043B246918E1306F2
:1035F000703E6376D600B246DC4314C38297B7C4EC
:10360000002083A744C1A9CB1387018C1C43B24679
:103610001306A00F9D8EB7C7002083A747CEED836A
:10362000B387C70263E9F600B2471CC3938744C15E
:103630009C4B91C382979387C18B9843B246998ED6
:103640003D671307F7A56379D7003247938444C1D8
:1036500098C3DC4891C3829732459384818B412C77
:103660009C4032471D8FBD679387F7A563F5E70040
:103670009924B2479CC003C7918DBE841377F70F7E
:103680000DC703C7918D1377070C1DE3B7C7002043
:1036900083A7C7CE99C30545829703A7018823AAAC
:1036A000E18C93070004A38CF18C41016FC09FB69D
:1036B00003C7918D1377070415CB83A6418D03A70C
:1036C00001881389418D158F93064006E3FFE6FCC0
:1036D000B7C7002083A7C7CE99C30145829783A7A8
:1036E00001882320F900930700F875BF03C7918D67
:1036F00062076187E35B07FA83A6418D03A7018810
:10370000158F93064006E3F2E6FAA38C018C71BF95
:10371000EFC21FAE37C500201305C5CFEF10303103
:103720006FC05FAFEFC2DFACB7C700209387C7C8D9
:10373000D85737C4002088D313674700D8D71189DA
:10374000930704CD9C4F130404CD01CD99C30145CB
:1037500082975C4C99C3014582970545352A6FC015
:103760007FAB99C3054582975C4CF5DB0545829795
:10377000FDB783A74189232005009DCB944363DBDC
:103780000600D4479042634506029C4363D4070079
:1037900023AAD18883A7418991650146FD15354843
:1037A000B7080080944363D7060019C223AAF188A2
:1037B00001458280944313930601634203049443BA
:1037C00093F606108DCE944393F606208DCA94434B
:1037D000C182ED8EF11614C16371D802944393F641
:1037E000060281EA19C223AAF1889C475CC10545FB
:1037F0008280944393F61608F5D62320050023A073
:1038000017010546DC4779BF03A74189B706008049
:1038100014C3584723AAE1888280EFC27F9D83C7E3
:10382000918D93F7F70F81E78547A38CF18C03A760
:1038300001889387018D09CB98C3B7C7002083A760
:1038400007CF82976FC01F9D0547FDB7B7C7002000
:1038500083A707CF014585CF03A701870DCB14436D
:1038600008479387018D63D206028C43A1668906BF
:103870009308300603A601880D8E63E4C800FD1688
:1038800081EA14438606858214C323A00700828040
:103890001043E34106FED5BF03A70188B7C7002048
:1038A000938787C088A3239107002392070098C7B6
:1038B000A38007008280EFC2BF93B7C400201384A7
:1038C000C4CF5C4041116C001385C4CF3EC6232297
:1038D0000400EF10C053B2476C001385C4CF5CC026
:1038E0005C443EC6EF10A05241016FC0BF92B7C703
:1038F0000020938787C0982319E388C78280984760
:103900009306703E3307E54063F3E602EFC25F8E35
:10391000BA2388C7914663F7E6000145EFF0DFF769
:103920006FC05F8F0507BAA3EFF0FFF8D5BF8280A5
:10393000EFC21F8C2A840145EFF01FF6B7C70020A5
:10394000938787C011C8054798B3B7C700200947B8
:1039500023ACE7CA6FC01F8CA3800700E5BF82803D
:1039600003288503630B0802EFC29F88FC5D0147B3
:1039700091C70507420741839C43DDBF83A7050824
:1039800091C70507420741839C43DDBF814601463D
:103990008145029801456FC0FF870145828001453E
:1039A0008280EFC27F825C42032A85000329C50022
:1039B0000049AA8488239C33B289A2075D8DEF1049
:1039C00050169355650093F5C503B305B0404E8579
:1039D000EF20304B49E5DC44984C03DB8900998F9C
:1039E00063F867014E85EF20B05005456FC05F81D9
:1039F0004A9A4E890356A900B30A8A40832B49008C
:103A000063F4CA045686DE852285EF60105883571A
:103A1000A9009844330444413E942286B3855B0157
:103A20003A85EF6090562A9403290900E31409FCB3
:103A30004E85EF20F04B9C4C80C8DA979CCC9C4084
:103A400093E747009CC055B72285DE85EF60F053B1
:103A50008357A9003E94E39957FD8044F1B701458F
:103A600071B771CAEFC24FF6832BC5001C4D035BC3
:103A70008600BA8AB387FB40368A32892A8463F784
:103A800067013285EF20D0466FC08FF71C4504498F
:103A9000B289BE9B03D6A900338C9B4083AC4900FE
:103AA0006377CC066286E6852685EF60104E83D765
:103AB000A9001844B3847441BE942686B3858C0152
:103AC0003A85EF60904CAA9483A90900E39409FC1D
:103AD0004A85EF20F04103288403630508048345E9
:103AE0001A0083470A001448A205DD8D83472A0087
:103AF0005A875686C207CD8F83453A002285E20554
:103B0000DD8D02981C44232C04001CC8B5BF2685FB
:103B1000E685EF60904783D7A900BE94E39687FBC4
:103B200004445DB7184C1C4004C85A9793E74700FB
:103B300018CC1CC091BF828018519547631AF70CAE
:103B4000EFC28FE81C492A847D55D9CF328AAE84D2
:103B500055CA832A84005844835B86003289BA9A06
:103B6000C20A93DA0A019399070193D90901338BA9
:103B70003A410356A900420B135B0B01032C490089
:103B80006376CB065A86E2853E85EF601040035788
:103B9000A9001C44B3056C0133075741BA99C20907
:103BA00093D909013E854E86EF60303EB30735015B
:103BB00003290900E31909FA184C1CC852855E97BD
:103BC00018CC18401367470018C0EF207032FE3839
:103BD000184C2685B38B77415C44239B7403998FE3
:103BE000DEB4EF30401801456FC08FE13E85E285BD
:103BF000EF60B0390357A900B307E500E31A67FB8C
:103C00001C447DB70145EDF22E85EF30E05EE9BF43
:103C100065558280EFC2CFDD2E84B7450000AA84AF
:103C2000938585B32285EF308023B7450000228538
:103C300093850596EF300023B745000022850546A1
:103C40009385E599EF3000239C20014593E7870099
:103C50009CC06FC02FDCEFC20FD8B7A9002003C6ED
:103C6000818D1387094581479389094593F6F70F9D
:103C700063E5C6006D556FC04FD9032807029386D0
:103C800017001307C70363040800B687C5B71309F5
:103C9000C003338927032E842A8A1306C003814573
:103CA000B38429012685EFC0AFD71305C902114699
:103CB000930544004E95EF60502D5E3080D8A68568
:103CC000DCD083278A0222859CD4EF300019B745C7
:103CD00000009385E5952285EF302019B745000057
:103CE000938585B32285EF308017B7450000938513
:103CF00005962285EF300017B7450000228505465E
:103D00009385E599EF3000178D47DCCC95479CD023
:103D10009C20014593E787009CC0B1BF19C93305BA
:103D2000A040CD67938707CD1375F50F3E95082109
:103D3000828001458280EFC2AFCB9307C003B38777
:103D4000F50237A40020130704452A89AE84130620
:103D5000C003814513040445BA973E85EFC04FCC9C
:103D6000630709001306C003CA85EF60102293059C
:103D7000C003B385B402A2959C459CC9DCC96FC041
:103D80006FC9EFC24FC52A8A37C500204111AE89DD
:103D9000B28481456146130545C136C6EFC04FC8A0
:103DA000B24637C400201309C4C8B68519461305A6
:103DB000C900EF60901D1146D2851305C4C8EF609D
:103DC000D01C1146CE8513054900EF60101C13046A
:103DD000C4C8A1E0B7070001FD171CC4814483C714
:103DE000818D63CFF402EF10804B85475CD015675F
:103DF000B7C70020938707C8130707E298C3116766
:103E0000130787A9D8C3254798C7014541016FC04B
:103E1000CFBF1146A68513058400EF6010177DBF44
:103E200093F5F40F0145EFF01FF185044DBF1855D0
:103E3000B7573412938787676310F712EFC2AFB991
:103E40001C512A8425456381071037C900201306B9
:103E5000400481451305C9C8EFC08FBCB7C400201A
:103E60001306C0028145138504CDEFC06FBB130656
:103E7000C002A285138504CDEF603011938904CD73
:103E800003A749014A86938704CD25EBAD6603D786
:103E900046E2938646E2AE222E97CE22F6222E9757
:103EA00036979316270163D3060AD8CBD84B93567F
:103EB000E700FD8A89EAB746F8FFFD16758FB70659
:103EC0000500558FD8CBD84B93563701FD8A89EA28
:103ED000B746F8FFFD16758FB7065000558FD8CB43
:103EE000D84B9316670063CA0600B70600FEFD169E
:103EF000758FB7060014558FD8CBD84B9356B701A2
:103F000089E6B7060040558FD8CBD85311E737372D
:103F1000000013072777D8D3D44B014513D7E60009
:103F20007D8B238CD18C9307C6C898CF13D73601CD
:103F30007D8B130620033307C702D8CF1397660083
:103F4000635407000947B8C36FC02FACF976FD165C
:103F5000758F8966558F91BF1305F00F8280654577
:103F6000828003C6818DB7A700209386074501474D
:103F7000938707456317E60081476313F7020145FE
:103F8000828003A807036317A80009C50545EDD97A
:103F900098A1828005071377F70F9387C703D9BFCE
:103FA000D05A6319A60019C50545F9D993E707F852
:103FB0009CA18280850793F7F70F9386C60375BF90
:103FC000EFC26FA137A900202300050003C7818D30
:103FD0004111930709458144130909456317970067
:103FE0001305000241016FC04FA29387C70383A648
:103FF00047FE63810618850493F4F40FC5B7B7C76D
:10400000002083A7C7C86C003EC6EF20D021114610
:104010009305C4026800EF6040776C004E85EF2086
:1040200070221306C0033386C402B745000093858F
:10403000259A4E854A96EF20D022954737C5002015
:104040006C00232834031CD01305C5CFEF00305C6F
:10405000A6852285EFF03FCE014569B709476390F9
:10406000E70AEF50B040AA8963030512930AC4021D
:104070001146D6856800EF604071324A370500F07E
:10408000EF10402D337AAA00370500E0EF10802CA6
:104090006300AA04B7C500209385C5CF6800EF1060
:1040A00080731DE5B7C7002083A7C7C812346C0012
:1040B0004E853EC6EF5050151DE1D685114668006D
:1040C000EF60A06C52306C004E85EF50F02E39A09E
:1040D00012349385C1834E85EF50101301C5EFF064
:1040E000FFC309B71306C0033386C402B7450000F7
:1040F000938525A64E854A96EF50F0333DBF0D4778
:1041000013051002E390E7EEEF30004B5C441234ED
:104110006C005EB9B7C7002083A7C7C8AA893EC68E
:10412000EF2070292A8A11C54E85EF30E00C5285A8
:104130007DB79305C003B385B4024E85CA95EF20C1
:10414000D051B74500004E859385E595EF20F0519D
:104150009547A685228523283403232A34031CD0BF
:10416000EFF07FBD37C500206C001305C5CFEF0011
:10417000104ADDB504A1DC4DC4C12E84E39007EEE6
:1041800003458402EF20301AAA89E31A05E6454563
:1041900091BDEFC2EF854EB52A84EF20D03C09CD0A
:1041A00083476402228593E727002303F402EF404C
:1041B000F07605456FC00F86B7C7002083A707CEEE
:1041C000A183858BFDD783476402858BFDD3894707
:1041D000A303F402054723AEE18CE1BF83C7818DC1
:1041E0006376F5041307C0033305E502B7A7002083
:1041F000938707453E95584D232C050050C50CC5A7
:104200000CC94CC98D476313F702085905C15A39C7
:1042100093371600631CF700EFB29FFD931506015C
:10422000C1814EB9EFF0FFF66FB0DFFE8280EFB2D2
:104230009FFA14426944CDCE23200600328A130629
:10424000C0033306C502B7A4002013870445AA891A
:10425000AE87938404453297032B87005047032988
:104260008701404B329B63F326013689B30A8B40AA
:1042700063F32A0981CB3E855686A285EF60E05024
:10428000B30755011307C0033387E9024A94330487
:1042900064412697832A870091C72286D6853E856A
:1042A000EF60A04E56949307C003B387F902232012
:1042B0002A01A697984FC0CB3309274123AC270189
:1042C000631809009847D8CB98CB98436D9B98C347
:1042D0009307C003B389F9028D470144CE94D84CAB
:1042E0006318F70063160900CE248858EFF07FEAC0
:1042F00022856FB09FF191C74A86A2853E85EF6007
:10430000C0484A94E3912AFB9307C003B387F9029C
:10431000A697804749BFB7A700209387074581C963
:104320001307C0033307E5023E97584B98C11307A4
:10433000C0033305E502AA97884F8280EFB2DFE819
:1043400000422320060055C4AA876945D9C5130534
:10435000C003B387A70237A5002013050545B7CAD8
:1043600000208144AA9703AB07039387CAC8BC43C4
:10437000938ACAC8898B99E39304700C9307805C75
:1043800063F487001304805C931C0401328A2E8935
:1043900093DC0C01130C800C0146E6850145EF20EF
:1043A000003AAA8929C948412286CA8523AE0A0251
:1043B000EF60A03DCE855A85EF20E072AA8B4E8536
:1043C000EF20003383A7CA0399CB8504C204C180C0
:1043D000EFF00FB4E39284FD4D456FB07FE263D6FA
:1043E0000B005E85EFF09F93CDBF23208A0001452F
:1043F000EDB76945DDB74545CDB7EFB2FFDC00420B
:104400002320060055C4AA876945D9C51305C003F2
:10441000B387A70237A5002013050545B7CA0020BA
:104420008144AA9703AB07039387CAC8BC43938A06
:10443000CAC8898B99E39304700C9307005C63F4FA
:1044400087001304005C931C0401328A2E8993DCDC
:104450000C01130C800C0146E6850145EF20202E4F
:10446000AA8929C948412286CA8523AE0A02EF607B
:10447000C031CE855A85EF500073AA8B4E85EF2050
:10448000202783A7CA0399CB8504C204C180EFF01B
:104490002FA8E39284FD4D456FB09FD663D60B00E5
:1044A0005E85EFF0BF87CDBF23208A000145EDB7C1
:1044B0006945DDB74545CDB7EFB21FD18329060069
:1044C00023200600638E090CAA872E8B6945A1C1A3
:1044D0001305C003B387A70237A5002013050545C0
:1044E00037CA0020B28B930A900C8144114C130AF6
:1044F0000ACDFD5CAA9703A90703FD1AC20A93DA45
:104500000A0163980A0083A70B00C9CB01456FB06D
:104510003FCF8327090163978709EFF06F9F035708
:10452000690719E34545E5B783270A01858B99E3B8
:10453000E36A37FF03244A00637387003A8463F316
:1045400089004E84131604014182854691E3814619
:10455000DA854A85EF409032AA844A858DE4EF409F
:10456000F03B83A70B00B3898940AA84A29723A0BC
:10457000FB00229BE38C09F883270A01858BB5FF9A
:10458000EFF0CFF969B763999401EF403039832791
:104590000A01858BBDF379B7EF4050382685CDB73A
:1045A0006945B5B75D45A5B79307C003B307F502E5
:1045B00037A7002013070745BA9703A80702154736
:1045C0006307E800DD47232006003E858280EFB2C6
:1045D0003FC2D84F8D476318F700EFF0FFEDAA8771
:1045E0003E856FB03FC301E7EFF05FD5CDBF894691
:1045F0009307A00FE316D7FEEFF03FE0CDB7EFB281
:104600003FBFA147AA840021638AF50263ECB7008B
:1046100085476381F502894713642400638EF500A2
:104620006FB05FBFC147638EF5009307000413644A
:104630000404EDB71364140080C0DDB71364840074
:10464000E5BF48591364040165D9EF20F03AEDB78E
:10465000EFB21FBA41119305F1002A89A3070100A7
:10466000EFF03F9015C5808793178401E18763D4ED
:1046700007021374F4071307C0033304E402B7A757
:104680000020938707453E94232A04022320040236
:1046900041016FB03FB883C7818DE37BF4FE130700
:1046A000C0033307E402B7A70020138507459384AE
:1046B00007453A95544D0D47E39CE6FC83270901D5
:1046C0000547DD1793F7F70F636DF700C145EFF06E
:1046D0001FF39307C0033304F40226942328040233
:1046E00075B71C2193E707041CC1E5B737A7002065
:1046F00083C6818D130707458147638FF600130733
:10470000C703032647FC11CEB7C700209387C7C84D
:10471000D85713670701D8D7B7C7002003C587CB81
:104720008280850793F7F70FC9BFEFB27FACEFF038
:10473000FFFBB7C7002023AC07CA6FB0BFAD83C76C
:10474000818D6371F5029307C0033305F502B7A7A6
:10475000002093870745AA9798431375F70F118B8D
:1047600098C3828001458280B7C7002003C5C7CAAD
:104770008280EFB2FFA71304C0033304850237A57C
:1047800000201305054541112A9404585D458DCC40
:10479000185095475D456319F7025C54232A0402BB
:1047A000B74600003EC65230938646C16C0026854F
:1047B000EF2070642A8901CD2685EF20F0234A85F9
:1047C00023200402EFF08FD541016FB0BFA483C74F
:1047D0006402014593F7F7FB2383F402F5B713074F
:1047E000C0033307E502B7A7002093860745369735
:1047F000105395466319D604EFB29F9F045B585B34
:1048000093870745630497005D479DE81304C00341
:104810003304850226853E94A28523280402EF20D6
:10482000C0639305F00F2685EF20404A454709C92C
:10483000B745000048D8938565C5EF206063014700
:104840003A856FB03F9D5D473A858280EFB25F9AAF
:104850001304C0033304850237A500201305054562
:10486000DD442A94085801CD1850954781446318B7
:10487000F700EF50A03C23280402232004022685E1
:104880006FB05F99EFB2DF961304C0033304850263
:1048900037A5002013050545DD442A94085801CDAD
:1048A0001850954781446318F700EF20C02423284F
:1048B00004022320040226856FB0DF95EFB2BF917A
:1048C0009307C003B307F50237A4002093090445FA
:1048D0002A894111130404458144BE9903A5490363
:1048E00001C92EC6EF205011B245AA8423A00902A7
:1048F0009307C003B307F902A297885B09CD85E14E
:10490000EF20900FAA8481E81305C0033305A902A4
:104910002A9423200402268541016FB01F8F85470A
:104920006396F5008545EF20502BF1BF89476394CE
:10493000F5008145CDBFD954F9BF03C7818D637B95
:10494000E5041307C003B307E50237A700201307E8
:1049500007459546BA9790535D47631ED602EFB25E
:104960003F89DC4F09476397E700EFF03FEE6205B0
:10497000618531A00D47639AE700EFF03FF4EFF057
:10498000EFB92A873A856FB0FF886547E5FFEFF0FA
:104990007FEFF1BF69473A858280B7C7002003A542
:1049A00047CE358105898280B7C700209387C7C865
:1049B00005474111C8CB94DBD0DB8CDFD8D7410150
:1049C0008280B7C70020054723A4E7CC8280EFB2DE
:1049D0003F82B7C7002003A6C7CD83A60181131766
:1049E00086016187630B051483C7018E614889487E
:1049F0003388070336980323C80063101315034355
:104A000015008348050003280800220333631301BF
:104A100083482500C20833E3680083483500E20874
:104A2000B3E86800639B0811E207E1873E856FB039
:104A30006FFEB3885702B69803AEC8006319060725
:104A400063170E061398870113588841850793F75B
:104A5000F70FE3E0C7FE6317060193F81500FD5753
:104A6000E38608FC8989FD57F1F19377F80F636BB2
:104A7000C8009377F30F6367C300FD57E378C7FA65
:104A80009377F70F61473387E702BA9623A60600AC
:104A900001CD103118212206598E38214207598E36
:104AA00038316207518F98C2238806000DA863141D
:104AB0007E040DC9834E1500034E0500A20EB3EE11
:104AC000CE01034E2500420EB36EDE01034E3500CB
:104AD000620E336EDE0183AE08006315DE012380B3
:104AE000F18E99B783C80801E3E2E8F713978701CD
:104AF0006187468FA1BFE31B8EF415C5834E150059
:104B0000034E0500A20EB3EECE01034E2500420E69
:104B1000B36EDE01034E3500620E336EDE0183AEEE
:104B20000800E30EDEFB83C80801E3E1F8F313930A
:104B3000870113538341C68F11BF3A883A83814F4F
:104B4000014F8147E1428543094421B7EFB2AFE805
:104B500098319C21368A22075D8FBC215441C207BF
:104B60005D8FBC31E207D98F639BF60089E6D95788
:104B70003E856FB08FE90545EFE09FDBCDBFE5DBFC
:104B80002E842A89AA852285B289EF00D04465F156
:104B90001C300420370500F0A207C58F2420C20472
:104BA000C58F2430E204DD8CEF00C07AE98C370534
:104BB00000E0EF00207AE38CA4FAD2852285EFF0A2
:104BC0001FE1AA87E34605FAE147B307F50203A50B
:104BD00001813E9589475CC5232A250193875900A9
:104BE0001307950094237D1714B39386F7FF6396FC
:104BF000F900230805008147A5BFB687E5B7B7C709
:104C0000002003A5C7CD03A801810147E14809435E
:104C10000546130EF00E6363A7008280B3061703E8
:104C2000C2969C2ACC46850793F7F70F9CAA6398F7
:104C30006500636AFE0005071377F70FE9BFE39C81
:104C4000C5FEE37AF6FE23A60600F5B721CDEFB246
:104C50002FDAC4412A84DC34C824A2075D8DEF001A
:104C6000606BA16793870710938524016304F500A7
:104C70009385E400D835DC2522075D8FFC25C2072B
:104C80005D8FFC35E207D98F5840B98F1844F98FF2
:104C900081EB814613866400B1052285EFF01FEB9E
:104CA0006FB04FD7828063030516EFB2CFD23A269A
:104CB000930790024111B2892E8AAA8463E8E70023
:104CC0004E85EF10F02241016FB02FD4032946002A
:104CD0008347D9000345C90013042901A2075D8D4C
:104CE000152DA167938707106304F5001304E900ED
:104CF000834A14001C200545A20AB3EAFA00192DC4
:104D0000E390AAFC834A54005C2013054060A20A89
:104D1000B3EAFA000125E395AAFA834A34003C205D
:104D20000565A20A13050580B3EAFA00E523E399B5
:104D3000AAF8930AE4001146D6856800EF50F024E3
:104D4000D44013068400ADC2183C1C2C22075D8F92
:104D50003C2CC2075D8F3C3CE207D98F6396F6047A
:104D600085466C002685EFF07FDE054B7C306820A1
:104D7000A2075D8D45238547630FF5028947E3113F
:104D8000F5F46C002685EF102033B7C7002003A789
:104D900047C1E30707F2938747C1DC47E38207F285
:104DA0006C002685829729BF81466C002685EFF02E
:104DB000FFD9014B65BFE3050BF00945A12B68A0A6
:104DC000218168B01146D68513058401EF50F01B90
:104DD0001146938544005685EF50301B3504150964
:104DE0009547FD5618207D197D1438B4A300E900BD
:104DF0003307FA001823FD1718B0A303E900E39363
:104E0000D7FE9C4CCE85268582975DBD8280EFB211
:104E10008FBC2A89AE8901469305A0020D45EF108B
:104E200010127D544DC94041AA840545E52148A88A
:104E3000218148B89306E9029307540015479385EA
:104E400041831386C1827D5503C80600FD17FD16F8
:104E5000A38B07013388E50003480800A3800703FC
:104E60003308E600034808007D17A380070103C844
:104E70001600A3830701E319A7FC11469305490017
:104E80001305C401EF507010CE851146130564025E
:104E9000EF50B00F0545BD2968A48569218168B42C
:104EA00013850980852908A8218108B81305406069
:104EB000952128A8218128B813856980A1298327F5
:104EC000890148A4218148B4A6854A8582972A840D
:104ED0002685EF10F00122856FB02FB3EFB2AFAF90
:104EE0002E842A89AA852285B289EF00D00E01C5B9
:104EF00059556FB08FB11C300420370500F0A20760
:104F0000C58F2420C204C58F2430E204DD8C992192
:104F1000E98C370500E03D29E38CA4FC18301C2007
:104F200022075D8F3C20C2075D8F3C30E207D98F9E
:104F3000E1D385452285EFF09FA9E34C05FAE147CF
:104F4000B304F50203A70181138A018185472697DF
:104F5000544799EA5CC7EFF0DFA6A2854A85EFF0D7
:104F60001FEBE38809F831A0E387F6FE7D55E38463
:104F700009FE83270A000947A697D447E39BE6F674
:104F800003A44900138797001306E902930654000F
:104F90008D070C237D17FD168CB20C227D16ECB20A
:104FA000E319F7FE056513050580AD268327890102
:104FB00048A4218148B4CE854A8582971DBFEFB2AF
:104FC0008FA1AE8441112A89B94526853284EF101C
:104FD000406B631E0510CA852285EF00C07F6315F4
:104FE00005101C3083490400370500F0A207B3E721
:104FF000370183492400C209B3E7F900834934002B
:10500000E209B3E9F900B926B3F9A900370500E0D0
:1050100091261020143038203C30639CA908139549
:105020008600518D4207598DE20785456C845D8D60
:105030009305E0054C85392E41811375F507C88528
:1050400008301C2022055D8D3C20C207C98F283006
:1050500062055D8D01262181488608301C202205CD
:105060005D8D3C20C207C98F283062055D8DDD242F
:10507000C8863400C04095477D5613075400B38559
:10508000F6008C217D170CB3B305F90083C595029A
:10509000FD176CB3E395C7FE0565130505809D2CD0
:1050A0008327890148A4218148B4A6854A8582972F
:1050B0000DA8A206D18E4207558FE207D98F03278C
:1050C0004900B98F03278900F98F99C78327C90041
:1050D000715581CB1304C9002686A2854A85EFF05D
:1050E000FFDF41016FB06F929386C18261B779553E
:1050F000CDBFEFB2EF8F44412A842E89DC34C8241F
:10510000A2075D8D012CA167938707106317F50037
:105110009C388828A2075D8DF52A9307058091CBDE
:105120008567938767806302F5042285EF10405CF2
:1051300015A8A2854A85EFF07FB1DC34C824A20708
:105140005D8DC92AA16793870710B9456313F500E0
:10515000C945B305B0402285EF10A05279F5CA8544
:105160002285A92401456FB0EF8A22869305990212
:105170004A85EFF05FB3FDB7EFB28F87B7C7002066
:105180009387C7C25CD193075006A309F502930722
:10519000E006230AF502B75700009387E7FB5CC9D6
:1051A000B75700009387C71D1CCDB7C5002099478E
:1051B0002A842304F502232E05001946938555D22F
:1051C00013059502EF50605C9307C05D1EB893070E
:1051D00030032309F40201456FB0CF83EFB24F8152
:1051E000B1642E8493841435EFF00FD8118915CD56
:1051F000FD1485CCEFE08FE52A897DD5AA8781440F
:1052000001E8CA852685EFE04FE101456FB08F8048
:1052100032244C403E85EF5040573A240040BA9427
:10522000C204B307E500C180E1BF5155C5B7EFA285
:105230009FFAB7C7002083A747CFAA891385418E5D
:105240009384418E82978C40A9C983C7918D138422
:10525000418E93F7F70F81E78547A38CF18CC20548
:105260000D46C1810D454440EF10604D2A8915C59A
:105270002A8432244840A685EF5020513E24004025
:10528000BE9465F8EFE04FD883A70901CE854A8523
:10529000829701C54A85EF10A0456FA01FF7EFA2C6
:1052A0003FF5411137C4002002C202C402C6EF001C
:1052B000D0781305C4CFB7C500201946938585C99A
:1052C00013059502EF50604CB7C7002003A7C7C86D
:1052D0009387C7C81305C4CF3AC29847DC433AC482
:1052E0003EC623A2019023A00190EF10A0383758AA
:1052F0000000B7570000740030004C001308280F5E
:105300009387871701471305C4CFEF100031410180
:105310006FA05FF09317850021815D8D420541816B
:1053200082809317850021815D8D420541818280B5
:105330001357850193178501D98FB706FF001317FF
:105340008500758FD98F4167130707F02181798D0B
:105350005D8D8280EFA2DFE9EFF09FFD6FA09FEBF4
:10536000EFA21FE903A44190AA8401EC03A50190D8
:1053700011C5EF10803019C103A4019022856FA0E0
:105380007FE92285EF10602F05C198309C2022070D
:105390005D8FBC20C2075D8FBC30E207D98F5840BB
:1053A000B98F1844F98FF9DB0040C1B7EFA2DFE1F4
:1053B0004041AA84AE891C300820A2075D8DEFF021
:1053C0005FF631814205418191476306F5002685EC
:1053D000EF10003231A41C300820A2075D8DEFF0E1
:1053E0005FF419813C30137AC5032820A2075D8D34
:1053F000EFF03FF3BE242A89E3EB47FD9E24E3E868
:10540000A7FCD2852285EF40105071F1CA85268510
:10541000EF10E046370500F0EFF0DFF3370500E06E
:10542000EFF05FF34E89054B930B04014A85EF10B3
:10543000C02411E563130B12032909000DA2930781
:105440004900EDDB83264900F5D618381C282207D1
:105450005D8F3C28C2075D8F3C38E207D98F63829D
:10546000F604CA855E85852E0DED1C38834A04013D
:10547000370500F0A207B3E75701834A2401C20AA7
:10548000B3E7FA00834A3401E20AB3EAFA00EFF024
:105490007FECB3FAAA00370500E0EFF0BFEBE39B27
:1054A000AAF858345C2422075D8F7C24C2075D8FE4
:1054B0007C34E207D98FB9C3CE851305C400212EF1
:1054C000E31705F05C34034AC400370500F0A20777
:1054D000B3E74701034AE400420AB367FA00034A0C
:1054E000F400620A336AFA00EFF0DFE6337AAA00CA
:1054F000370500E0EFF01FE6E30BAAECE30909EC47
:1055000003497400682022093369A90011657D15DB
:10551000EFF05FE03375A90011C52685ED26AA845A
:1055200061C14041CE852685EF10604955E91C34A4
:105530000824A2075D8DEFF0DFDE1375F50F9947A4
:105540006303F50AC5476309F50885476312F50A41
:10555000CE852685EF40207B61A003A9419063148E
:10556000390103290900014BE31209EC1C3408241A
:10557000A2075D8DEFF0FFDA1375F50FC547631EC7
:10558000F500B3074401A823BC33A2075D8DEFF0FB
:105590005FD993074004630DF502854A1C34082443
:1055A000A2075D8DEFF0FFD71375F50FC54763199F
:1055B000F508229A83473A0003452A00A2075D8D29
:1055C000EFF03FD69307C076631CF5064E893DB7D2
:1055D000E39809F2814AD9B7CE852685EF40401F6E
:1055E00001456FA0FFC1CE852685EF20B038CDBF25
:1055F000CE8513050401C522E31B05DC1C380349D5
:105600000401370500F0A207B3E72701034924018D
:105610004209B367F9000349340162093369F900AB
:10562000EFF05FD33379A900370500E0EFF09FD2A8
:10563000E30FA9D8C0C089452685EF40D01141BBF2
:10564000E3910AE669B3EFA23FB8AA894289630FE2
:105650000612AE8AD1453A8AB284B68B3E8BEF10E1
:10566000400279576311051203A44900A20B1C34B0
:105670000824A2075D8DEFF0DFCA1375F50F3365BF
:105680007501EFF03FC91357850018B408A4EFF077
:105690005FC92181420541812205336565014205CB
:1056A0004181EFF03FC798309C2008A422075D8F0E
:1056B000BC20218108B4C2075D8FBC301165130581
:1056C0000550E207D98F13D787001CA818B813D745
:1056D0000701E1833CB838A83365AA00EFF09FC307
:1056E00008A0218108B003D58900138AC18EEFF08C
:1056F0007FC228A0218128B003550A00230304009B
:10570000A3030400EFF01FC183570A0048A02181C2
:10571000850748B02310FA0063810A0203C71A0004
:1057200083C70A0022075D8F83C72A00C2075D8FE7
:1057300083C73A00E207D98F99E7130749008147E9
:1057400019C38327490013D787005CA458B413D723
:105750000701E18378A47CB423050400A3050400B9
:10576000D1452285EF40301A28A4218128B48357DF
:10577000090385C303D7890063FDE7002686CA8530
:105780004E8585232A873A856FA09FA74441C1048F
:10579000F9BF832749012686CE854A858297DDB7E2
:1057A000EFA21FA501112A8432852ECE36CC3ACA2B
:1057B0003EC832C6EFF0DFBA09CDC2475247E246D3
:1057C0003246F2452A882285EFF0FFE705616FA097
:1057D0007FA47155E5BF18311C2122075D8F3C2144
:1057E000C2075D8F3C31E207D98F9386F7FF75576B
:1057F0006366D70203C725030145098B0DC3D84152
:10580000630FF70094453D8F758F11EB13C5F6FFBD
:10581000E98F3385A74013351500828005458280C6
:10582000EFA29F9A03A4018FC544014B1389018FF6
:1058300019E06FA0FF9CFD1493F4F40FFDD87C3C9D
:10584000032C040091C7FD177CBC228B6284CDB76A
:1058500083294400814A03A549005C315821A207ED
:10586000D98F85EF18311C21514622075D8F3C21CD
:1058700093058400C2075D8F3C31E207D98F5CC07D
:10588000EF40B07085454E85EF40206E4E85EF109D
:105890008004AA8A4E85EF00B06583294400639690
:1058A0000902032709001C40631CE4042320F900BB
:1058B000A2851545EF00B0461387E18E1E235A845A
:1058C000B38A57412310570149B703A749004E85B2
:1058D0001C33034A0700A207B3E74701034A270026
:1058E000420AB367FA00034A3700620A336AFA00D1
:1058F000EF00707EAA9A4E85EF00905FD28945B77F
:105900002320FB0075B7EFA23F8C44412A899C30CD
:105910008820A2075D8DEFF0DFA019811375C50304
:10592000D1476312F526FC30E820A2075D8DEFF029
:105930005F9FBC302A8BA820A2075D8DEFF07F9E71
:105940009C30AA8C8820A2075D8DEFF09F9D2A8C49
:105950004A85EF005078B7C7002083A707CE03D74A
:10596000E18E2A8D8D832A97FD8B9389E18E63ECDE
:10597000E72003A4018F814A138A018F1DE8154592
:10598000EF00F0372A846300052071468145130536
:105990004400EFA0FF888D477CBC83270A002320AA
:1059A0008A001CC05146A68513058400EF40F05DB7
:1059B00095ACD834DC2422075D8FFC24C2075D8FB0
:1059C000FC34E207D98F58486316F70298389C28B0
:1059D00022075D8FBC28C2075D8FBC38E207D98FD4
:1059E000184C6319F700DC30D4205A24A207D58F55
:1059F0006306F720A28A004051B7CC4203C8550085
:105A000003C34500220833686800637C060D93D504
:105A1000860094A38CB393D50601E182ACA3B4B302
:105A2000630E072A74336C23A206CD8E6364D614EA
:105A30006362A814935689002300270114B3935678
:105A400009011359890134A3A3012701782C014BC3
:105A5000058B630F0718638D081858404443D830EE
:105A6000D4202207558F6315071894339823A20674
:105A7000D98EB8234207D98EB8336207558F61E7B4
:105A80005E2C03C904005146D1075EAC9C309305DF
:105A900084002685A207B3E7270103C92400420931
:105AA000B367F90003C9340062093369F900EF40B4
:105AB000D04D4A2CEFF01F86A8A02181A8B02383E7
:105AC0000400A383040023850400A3850400D145BA
:105AD0002685EF404063A8A42181A8B4032B44008D
